{
  "contractName": "Voting",
  "abi": [
    {
      "constant": true,
      "inputs": [
        {
          "name": "",
          "type": "bytes32"
        }
      ],
      "name": "votesReceived",
      "outputs": [
        {
          "name": "",
          "type": "uint256"
        }
      ],
      "payable": false,
      "stateMutability": "view",
      "type": "function"
    },
    {
      "constant": true,
      "inputs": [
        {
          "name": "",
          "type": "uint256"
        }
      ],
      "name": "candidateList",
      "outputs": [
        {
          "name": "",
          "type": "bytes32"
        }
      ],
      "payable": false,
      "stateMutability": "view",
      "type": "function"
    },
    {
      "inputs": [
        {
          "name": "candidateNames",
          "type": "bytes32[]"
        }
      ],
      "payable": false,
      "stateMutability": "nonpayable",
      "type": "constructor"
    },
    {
      "constant": false,
      "inputs": [
        {
          "name": "candidate",
          "type": "bytes32"
        }
      ],
      "name": "totalVotesFor",
      "outputs": [
        {
          "name": "",
          "type": "uint256"
        }
      ],
      "payable": false,
      "stateMutability": "nonpayable",
      "type": "function"
    },
    {
      "constant": false,
      "inputs": [
        {
          "name": "candidate",
          "type": "bytes32"
        }
      ],
      "name": "voteForCandidate",
      "outputs": [],
      "payable": false,
      "stateMutability": "nonpayable",
      "type": "function"
    },
    {
      "constant": false,
      "inputs": [
        {
          "name": "candidate",
          "type": "bytes32"
        }
      ],
      "name": "validCandidate",
      "outputs": [
        {
          "name": "",
          "type": "bool"
        }
      ],
      "payable": false,
      "stateMutability": "nonpayable",
      "type": "function"
    },
    {
      "constant": true,
      "inputs": [],
      "name": "getCandidateList",
      "outputs": [
        {
          "name": "",
          "type": "bytes32[]"
        }
      ],
      "payable": false,
      "stateMutability": "view",
      "type": "function"
    }
  ],
  "bytecode": "0x608060405273ef68e7c694f40c8202821edf525de3782458639f600160006101000a81548173ffffffffffffffffffffffffffffffffffffffff021916908373ffffffffffffffffffffffffffffffffffffffff16021790555034801561006557600080fd5b506040516105f83803806105f883398101806040528101908080518201929190505050806002908051906020019061009e9291906100a5565b505061011d565b8280548282559060005260206000209081019282156100e7579160200282015b828111156100e65782518290600019169055916020019190600101906100c5565b5b5090506100f491906100f8565b5090565b61011a91905b808211156101165760008160009055506001016100fe565b5090565b90565b6104cc8061012c6000396000f300608060405260043610610078576000357c0100000000000000000000000000000000000000000000000000000000900463ffffffff1680632f265cf71461007d578063392e6678146100c25780637021939f1461010b578063b13c744b14610150578063cc9ab26714610199578063fdbc4006146101ca575b600080fd5b34801561008957600080fd5b506100ac6004803603810190808035600019169060200190929190505050610236565b6040518082815260200191505060405180910390f35b3480156100ce57600080fd5b506100f1600480360381019080803560001916906020019092919050505061026e565b604051808215151515815260200191505060405180910390f35b34801561011757600080fd5b5061013a60048036038101908080356000191690602001909291905050506102cd565b6040518082815260200191505060405180910390f35b34801561015c57600080fd5b5061017b600480360381019080803590602001909291905050506102e5565b60405180826000191660001916815260200191505060405180910390f35b3480156101a557600080fd5b506101c86004803603810190808035600019169060200190929190505050610308565b005b3480156101d657600080fd5b506101df610444565b6040518080602001828103825283818151815260200191508051906020019060200280838360005b83811015610222578082015181840152602081019050610207565b505050509050019250505060405180910390f35b60006102418261026e565b151561024c57600080fd5b6000808360001916600019168152602001908152602001600020549050919050565b600080600090505b6002805490508110156102c257826000191660028281548110151561029757fe5b90600052602060002001546000191614156102b557600191506102c7565b8080600101915050610276565b600091505b50919050565b60006020528060005260406000206000915090505481565b6002818154811015156102f457fe5b906000526020600020016000915090505481565b60006103138261026e565b151561031e57600080fd5b600160009054906101000a900473ffffffffffffffffffffffffffffffffffffffff1673ffffffffffffffffffffffffffffffffffffffff166370a08231336040518263ffffffff167c0100000000000000000000000000000000000000000000000000000000028152600401808273ffffffffffffffffffffffffffffffffffffffff1673ffffffffffffffffffffffffffffffffffffffff168152602001915050602060405180830381600087803b1580156103db57600080fd5b505af11580156103ef573d6000803e3d6000fd5b505050506040513d602081101561040557600080fd5b81019080805190602001909291905050509050806000808460001916600019168152602001908152602001600020600082825401925050819055505050565b6060600280548060200260200160405190810160405280929190818152602001828054801561049657602002820191906000526020600020905b8154600019168152602001906001019080831161047e575b50505050509050905600a165627a7a723058206bdfc88588e85fb63ce569a980110f5ae957d98cd784b0a836131df90a6f86690029",
  "source": "pragma solidity ^0.4.23; //We have to specify what version of compiler this code will use\n\nimport \"./ERC20.sol\";\n\ncontract Voting {\n  /* mapping is equivalent to an associate array or hash\n  The key of the mapping is candidate name stored as type bytes32 and value is\n  an unsigned integer which used to store the vote count\n  */\n  mapping (bytes32 => uint256) public votesReceived;\n  \n  /* Solidity doesn't let you create an array of strings yet. We will use an array of bytes32 instead to store\n  the list of candidates\n  */\n  \n  address lrcAddress = 0xef68e7c694f40c8202821edf525de3782458639f;\n\n  bytes32[] public candidateList;\n\n  // Initialize all the contestants\n  function Voting(bytes32[] candidateNames) {\n    candidateList = candidateNames;\n  }\n\n  function totalVotesFor(bytes32 candidate) returns (uint256) {\n    require(validCandidate(candidate));\n    return votesReceived[candidate];\n  }\n\n  function voteForCandidate(bytes32 candidate) {\n    require(validCandidate(candidate));\n    //TODO: get the specific token balance\n    uint256 balance = ERC20(lrcAddress).balanceOf(msg.sender);\n    votesReceived[candidate] += balance;\n  }\n\n  function validCandidate(bytes32 candidate) returns (bool) {\n    for(uint i = 0; i < candidateList.length; i++) {\n      if (candidateList[i] == candidate) {\n        return true;\n      }\n    }\n    return false;\n  }\n\n  // This function returns the list of candidates.\n  function getCandidateList() constant returns (bytes32[]) {\n    return candidateList;\n  }\n}\n",
  "sourcePath": "/Users/yangli/Code/votingSC/contracts/Voting.sol",
  "compiler": {
    "name": "solc",
    "version": "0.4.24+commit.e67f0147.Emscripten.clang"
  },
  "schemaVersion": "2.0.1",
  "updatedAt": "2018-08-17T00:43:48.841Z"
}